:08000000803102288731F32F43
:100CE00038302100990098012200960108008631D1
:100CF000CA268631863170268631080022008E137E
:100D000001308731402786315330890B852E000012
:100D10000800F20022008E137108031D902E912E00
:100D2000972E7208803E8731402786319C2E7208AC
:100D3000C03E8731402786310800863177268631CC
:100D40008631F326863186317E2686310030F400E6
:100D50008830F5000B3087318E278631A62E803102
:100D6000022822008E17C02E7108840072088500A8
:100D700000088731402786310130F1070030F23D0D
:100D800071088400720885001200031DC82EC92E48
:100D9000B42E080022008C018D018E013730210015
:100DA0008C008D013F308E000F3023008E008D01AE
:100DB00017308C0024008D018C018E0121009517C5
:100DC00025008C018D018E01373026008C00F0301B
:100DD0008D00FF308E003F3027008C00F0308D00FA
:100DE000FF308E0008000330F1006E30890BF62EC4
:100DF000F10BF62E000022008E130D168D160D132A
:100E00008D130E1700320032000022000E13D03076
:100E1000890B082F000022000E170032003200005C
:100E200022000E130430890B132F22000E170032FC
:100E30000032000022000E13D030890B1D2F00005D
:100E400022008E130D128D160D138D130E17003206
:100E50000032000022000E13003200320000283061
:100E60008731402786310C30873140278631013069
:100E70008731402786310630873140278631080088
:100E8000F0000430890B422FF01F472F482F4B2FC3
:100E900022008D174D2F22008D13701F502F512FC0
:100EA000532F0D17542F0D13F01E572F582F5A2F55
:100EB0008D165B2F8D12701E5E2F5F2F612F0D160A
:100EC000622F0D120E1700320032000022000E13A6
:100ED000F01D6B2F6C2F6E2F8D176F2F8D13701DC4
:100EE000722F732F752F0D17762F0D13F01C792F7E
:100EF0007A2F7C2F8D167D2F8D12701C802F812FC5
:100F0000832F0D16842F0D120E17003200320000B1
:100F100022000E130032003200000800F800863173
:100F20007E268731E52F7808F600F7017A087706E4
:100F3000031D9C2F79087606031D9F2FA02FC92F14
:100F40007808F600F7017608F9007708FA00C32F51
:100F500086317E268731F1017908863189268731ED
:100F60007508F2007408F1008631B12687313130FE
:100F7000F600B230890BBA2FF60BBA2F00320130CF
:100F8000F9020030FA3B79087A04031DC82FC92FF3
:100F9000A82F86317E268731F101F10A7908863142
:100FA000892687317508F2007408F1008631B12670
:100FB00087313130F600B230890BDC2FF60BDC2F95
:100FC00000320130F9070030FA3D7808F600F701E9
:100FD0007A087702031DEE2F790876020318F12FA5
:100FE000F22F932F0800F901FA01FB01FC01FD012A
:100FF0002000A001A101A201A301200086319D2EA5
:0C100000683465346C346C346F34003498
:020000040001F9
:08000000FF3FFF3FFF3FFF3F00
:06000E00FC3FFF3E9F3F96
:00000001FF
